:100000000C94DB000C9403010C9403010C94030189
:100010000C9403010C9403010C9403010C94030150
:100020000C9403010C940C0A0C94C9060C94380728
:100030000C9403010C9403010C9403010C94030130
:100040000C9403010C9403010C9403010C94030120
:100050000C9403010C9403010C9403010C946A09A1
:100060000C9403010C94DA090C94B4090C94030168
:100070000C9403010C9403010C9403010C940301F0
:100080000C9403010C9403010C9403010C940301E0
:100090000C94840A0C9403010C9403010C94030146
:1000A0000C9403010C9403010C9403010000000262
:1000B00000090F0000030401000C00000000000014
:1000C0000000000000000000000000080B00020219
:1000D00002000009040000010202000005240010D3
:1000E000010524010101042402060524060001077C
:1000F00005810310004009040100020A0000000706
:1001000005020240000007058302400000040309C5
:100110000412010002EF020140FB1F002300010155
:10012000020301506F6C6F6C7520436F72706F72B9
:100130006174696F6E00506F6C6F6C7520412D5348
:100140007461722033325534000000000023002611
:100150000029002C002F0000000000240027002AA6
:10016000002D00300000000000250028002B002E8C
:100170000031000404040404030405020202020422
:100180000302020202060606060606040402020232
:100190000404040802011040804010204080408088
:1001A000080204018040201002011080102040400D
:1001B00020009F0BBB0D11241FBECFEFDAE0DEBF86
:1001C000CDBF23E0ACE5B1E001C01D92A034B20781
:1001D000E1F711E0A0E0B1E0E6E2F0E202C0059054
:1001E0000D92AC35B107D9F710E0CAEDD0E004C0EC
:1001F0002197FE010E940E0EC93DD107C9F70E944A
:10020000A00C0C9406100C940000FC0180912F02AD
:10021000882311F13FB7F89482E08093E9002091A0
:10022000F200822F90E01816190614F481E090E095
:10023000882339F0289844E640932E024091F1003B
:100240004083222339F02091F200211103C02BE6D4
:100250002093E8003FBF08958FEF9FEF08952FB7D9
:10026000F89483E08093E9009091E800892F8072F0
:1002700095FF04C09091F20080E4891B2FBF089580
:100280008091260281110DC082E08093220284E0D9
:1002900080932302109225021092240281E0809321
:1002A000260282E292E00895CF93DF931F92CDB7AA
:1002B000DEB76983DC01ED91FC910280F381E02DD2
:1002C00041E050E0BE016F5F7F4F09950F90DF91D5
:1002D000CF91089583E08093E9008091F200882314
:1002E00019F08AE38093E80008950E942F0190E0BE
:1002F0000895CF93DF931F92CDB7DEB7FC018485BD
:10030000958597FD08C02FEF3FEF358724870F9025
:10031000DF91CF910895CE0101960E9405010197CA
:1003200019F4898190E0F3CF8FEF9FEFF0CF0F9317
:100330001F93CF93DF931F92CDB7DEB78C01FC01E3
:100340008485958597FF0BC0CE0101960E9405011B
:10035000019771F4898190E0F80195878487F8010D
:10036000848595850F90DF91CF911F910F9108950E
:100370008FEF9FEFF1CFFC018485958597FD0BC032
:100380009FB7F89482E08093E9008091F2009FBFCC
:1003900090E0019608959FB7F89482E08093E90079
:1003A0008091F2009FBF90E0089540911C0250910F
:1003B0001D0220911A0230911B0242175307B4F418
:1003C0009091E8009570E1F39091E80092FD19C0DA
:1003D0008093F10080911C0290911D0201968F7311
:1003E0009927892B19F48EEF8093E80080911C02E5
:1003F00090911D02019690931D0280931C0281E052
:10040000089580E00895EF92FF920F931F93CF938A
:10041000DF93F82E192FE62E042F81E0860F880F28
:100420000E94D50183E00E94D501CF2DD12FEC0E83
:10043000FD2EF11CCE15DF05B9F007FF13C0FE013C
:1004400084910E94D501182F80E00E94D50181235C
:1004500021968111EFCFDF91CF911F910F91FF90E6
:10046000EF9008958881EDCF81E0F5CFDF92EF9294
:10047000FF920F931F93CF93DF93D82E8A01EB0146
:100480007B01E40EF51ECE15DF0559F0D7FE12C034
:10049000FE0184910E94D50121968111F4CF0FEFC6
:1004A0001FEFC801DF91CF911F910F91FF90EF9047
:1004B000DF9008958881EECF0F931F93CF93DF9342
:1004C0001F92CDB7DEB782E0898342E450E06BEC47
:1004D00070E080E80E9436020E944001DC01129622
:1004E0000D911C910115110589F0D801ED91FC9138
:1004F0000280F381E02DBE016F5F7F4FC801099537
:1005000097FD04C0F80100851185ECCF89810F901B
:10051000DF91CF911F910F910895615030F020919C
:10052000F100FC0120830196F8CF289884E680939F
:100530002E020895282F30E0F901E455FF4F9491E1
:10054000F901EE56FE4F84912D583E4FF90124914A
:10055000222309F430C09923E9F091509F30D0F460
:10056000E92FF0E0EA54FD4F0C940E0EE402E8028D
:10057000C502DC02E002CA02CA02CA02EB02F102B0
:10058000F502F902FF02CA020303909180009F77EF
:1005900090938000E22FF0E0EE0FFF1FEB59FE4F2B
:1005A000A591B4919FB7F894EC91611132C08095F8
:1005B0008E238C939FBF0895909180009F7DE8CFFC
:1005C00090918000977FE4CF94B59F7794BDE2CF60
:1005D00094B59F7DFBCF909190009F779093900072
:1005E000D9CF909190009F7DF9CF90919000977F07
:1005F000F5CF9091C0009F779093C000CBCF9091A2
:10060000C0009F7DF9CF9091C200977F9093C20068
:10061000C1CF8E2BCECF3FB7F89480911602909128
:100620001702A0911802B091190226B5A89B05C027
:100630002F3F19F00196A11DB11D3FBFBA2FA92F61
:10064000982F8827BC01CD01620F711D811D911D5E
:1006500042E0660F771F881F991F4A95D1F70895CA
:100660008F929F92AF92BF92CF92DF92EF92FF92C2
:100670004B015C010E940B036B017C010E940B0388
:100680006C197D098E099F09683E734081059105AB
:10069000A8F321E0821A9108A108B10888EEC80EDB
:1006A00083E0D81EE11CF11C81149104A104B10463
:1006B00029F7FF90EF90DF90CF90BF90AF909F9081
:1006C0008F9008958F929F92AF92BF92CF92DF92B8
:1006D000EF92FF920F931F93CF93DF936C017B01F7
:1006E0008A0180910B01882309F45CC080912F025C
:1006F000882309F457C08091210280FF05C08091B2
:10070000E00082608093E000E801B12C8AEFA82E1F
:1007100093E0892E2AE3922E209711F4BB20D9F181
:100720000E942F0181110AC0AA94AA20D9F161E088
:1007300070E080E090E00E943003EECF8C171D0641
:1007400011F00CF08C2F9FB7F8948092E900209163
:10075000E80025FD02C09FBFDFCF282F30E0C21B7D
:10076000D30BF701815020F041914093F100FACF73
:10077000E20EF31EBB2021F09092E800B12CEBCFEB
:100780008091E80085FDE7CF9092E800BB24B39408
:10079000209709F3F3CF5D9884E68093200210162A
:1007A00011063CF081E090E0F6019383828310E033
:1007B00000E0C801DF91CF911F910F91FF90EF9062
:1007C000DF90CF90BF90AF909F908F900895AF92A1
:1007D000BF92CF92DF92EF92FF920F931F93CF932E
:1007E000DF936C017B018B01040F151FEB015E0190
:1007F000AE18BF08C017D10759F06991D601ED9125
:10080000FC910190F081E02DC6010995892B79F7C3
:10081000C501DF91CF911F910F91FF90EF90DF9075
:10082000CF90BF90AF900895FC01448155816081C5
:10083000718180E892E00E94E70342E050E06FE4BB
:1008400071E080E892E00C94E703FC01538D448D45
:10085000252F30E0842F90E0821B930B541710F06B
:10086000CF96089501970895FC01918D828D981778
:1008700061F0A28DAE0FBF2FB11D5D968C91928D50
:100880009F5F9F73928F90E008958FEF9FEF089581
:10089000FC01918D828D981731F0828DE80FF11D4A
:1008A000858D90E008958FEF9FEF0895FC01918D65
:1008B000228D892F90E0805C9F4F821B91098F735E
:1008C0009927089580E892E00E94560421E0892B40
:1008D00009F420E0822F089580E090E0892B29F030
:1008E0000E94620481110C9400000895FC01A48D03
:1008F000A80FB92FB11DA35ABF4F2C91848D90E042
:1009000001968F739927848FA689B7892C93A08924
:10091000B1898C9182748C93938D848D981306C0C9
:100920000288F389E02D80818F7D80830895EF9286
:10093000FF920F931F93CF93DF93EC0181E0888F99
:100940009B8D8C8D981319C0E889F989808185FF6A
:1009500014C09FB7F894EE89FF896083E889F9890C
:100960008081827480839FBF81E090E0DF91CF918E
:100970001F910F91FF90EF900895F62E0B8D10E0D0
:100980000F5F1F4F0F731127E02E8C8D8E110CC03F
:100990000FB607FCFACFE889F989808185FFF5CF8A
:1009A000CE010E947604F1CFEB8DEC0FFD2FF11DEF
:1009B000E35AFF4FF0829FB7F8940B8FEA89FB89C7
:1009C00080818062CFCFCF93DF93EC01888D882325
:1009D000B9F0AA89BB89E889F9898C9185FD03C0A2
:1009E000808186FD0DC00FB607FCF7CF8C9185FF87
:1009F000F2CF808185FFEDCFCE010E947604E9CF52
:100A0000DF91CF91089520910F02309110022817A5
:100A1000390771F490910E0280910D02981741F000
:100A2000E0910E02F0E0E353FE4F808190E00895E4
:100A30008FEF9FEF08950895EF92FF920F931F930A
:100A4000CF93DF93DC015C96ED90FC905D97E11411
:100A5000F10479F481E090E013969C938E931297C1
:100A600090E080E0DF91CF911F910F91FF90EF9088
:100A700008955196ED91FC91529750968C91509714
:100A8000982F90950FB75E962C915E97122F12704B
:100A900021FD6095F8942081112319F1282B2083E2
:100AA000E7012197F1F728E0462F50E0308160FF01
:100AB0001AC0382B3083E7012197F1F7BA017595F9
:100AC0006795215089F7112381F0808189238083E4
:100AD0000FBF5C968D919C910197F1F781E090E0BA
:100AE000C1CF2923DCCF3923E5CF9081892BEFCFEC
:100AF00020910F02309110022817390761F480917C
:100B00000D0220910E0290E0805C9F4F821B9109A4
:100B10008F739927089590E080E0089520910F0247
:100B20003091100228173907B9F490910E02809184
:100B30000D02981789F0E0910E02F0E0E353FE4FAA
:100B4000808120910E0230E02F5F3F4F2F733327BB
:100B500020930E0290E008958FEF9FEF089520916B
:100B60008301260F3327331F21323105ECF4209106
:100B7000A701FC0190E080E0243069F082E0089554
:100B8000A09183012191AC014D595E4FA40FB52F67
:100B9000B11D2C930196861798F380918301680FFD
:100BA0006093830180E0089581E008958FEF9FEFC7
:100BB00008958FEF9FEF089580915C0190E09195EB
:100BC000819591090895CF93DF93CB01EA01642FBA
:100BD0000E94AF05CE01DF91CF910895CF93DF93AF
:100BE0001F92CDB7DEB7698361E0CE0101960E9406
:100BF000AF0581E090E00F90DF91CF91089590E0F4
:100C000080E00895FC0180819181009711F00C949F
:100C1000B00E0895EF92FF920F931F93CF93DF933F
:100C2000EC017B01FB0101900020E9F731978F0176
:100C3000061B170B88819981009729F02A813B8137
:100C40002017310788F4B8016F5F7F4F0E94390F7A
:100C50000097B9F0998388831B830A832C813D8197
:100C6000232B11F4FC0110821D830C83B7018881B2
:100C70009981DF91CF911F910F91FF90EF900C948C
:100C8000FF0F88819981009711F00E94B00E1982A0
:100C900018821D821C821B821A82DF91CF911F91C4
:100CA0000F91FF90EF9008951F93CF93DF9385ED01
:100CB0008093BC0080915F0190916001A0916101DF
:100CC000B09162010796A11DB11D23E0B695A795CD
:100CD000979587952A95D1F72091BC0024FD03C0F4
:100CE0001092A70152C040915F0150916001609144
:100CF000610170916201452B462B472B69F30097E8
:100D0000A105B10541F02AE22A95F1F700C001974B
:100D1000A109B109E1CF80915E01C1E0C0935D01FD
:100D2000882399F1D091B8001091BA008091BC004D
:100D30008A7B8093BC0060E082E00E949A0260E0BF
:100D400083E00E949A021092A701C093A901109219
:100D5000A80161E082E00E949A0261E083E00E94C3
:100D60009A028091B9008E7F8093B9008091B9007A
:100D70008D7F8093B90088E48093B80085E48093E8
:100D8000BC001093BA00D093B800DF91CF911F91AF
:100D900008951F920F920FB60F9211248F939F9375
:100DA0008091E1009091E100937F9093E10083FFB7
:100DB0000FC01092E90091E09093EB001092EC00CC
:100DC00092E39093ED0010922F0298E09093F00040
:100DD00082FF22C093E09093E9009091F200992362
:100DE00019F09AE39093E80090912002992341F042
:100DF00090912002915090932002911101C05D9A30
:100E000090912E02992341F090912E02915090934F
:100E10002E02911101C0289A84FF18C08091E2002F
:100E20008E7E81608093E2008091E1008F7E8093CE
:100E3000E100809121028E7E8061809321029F914A
:100E40008F910F900FBE0F901F90189580FFF7CFD6
:100E50008091E2008E7E80618093E2008091E100CB
:100E60008E7E8093E100809121028E7E8160E5CFAD
:100E70001F920F920FB60F921124CF92DF92EF9232
:100E8000FF920F931F932F933F934F935F936F9313
:100E90007F938F939F93AF93BF93EF93FF93CF93E2
:100EA000DF93CDB7DEB76C97DEBFCDBF1092E90000
:100EB0008091E80083FF25C068E0CE0145960E943E
:100EC0008D0282EF8093E8008D8987FF39C0909171
:100ED000E80090FFFCCF982F907609F034C19E89EE
:100EE0004F89588D2F89F88C911131C0803861F568
:100EF00080911F028093F1001092F1008EEF809399
:100F0000E8006C960FB6F894DEBF0FBECDBFDF9140
:100F1000CF91FF91EF91BF91AF919F918F917F9171
:100F20006F915F914F913F912F911F910F91FF9082
:100F3000EF90DF90CF900F900FBE0F901F901895FD
:100F40009EEF9093E800C7CF1092F100D5CF91307B
:100F500059F48111D3CF4130510581F680911F02A0
:100F60008D7F80931F02CACF933049F48111C6CF81
:100F70004130510519F680911F028260F2CF953001
:100F800041F48091E80080FFFCCF20682093E300CB
:100F9000B5CF963009F0A9C00B8D1C8D22E01092C0
:100FA000E90010921D0210921C02F2122EC0109243
:100FB0001B0210921A020E945C021F8299E0998320
:100FC000FA8291E09E8390EA98879AEF9987209120
:100FD0001C0230911D02275F3F4F3C832B838D8382
:100FE0001092E90010921D0210921C0210931B0235
:100FF00000931A0249E050E0BE016F5F7F4F80E02E
:101000000E9436020E945C0279CF10931B0200936B
:101010001A020E944001DC0112960D911C910115EB
:10102000110509F451C1D801ED91FC910480F581BD
:10103000E02DBE016B5E7F4FC8010995009709F056
:101040003EC1F80100851185EACFF3E0FF120EC022
:101050008F89882309F440C0823061F440E862E15E
:1010600086E391E00E940302811148CF81E28093E0
:10107000EB0047CF813029F440E862E183E291E060
:10108000F1CF833099F70E944001DC011296ED9078
:10109000FC908E010F5F1F4F6801E114F10479F09D
:1010A000D701ED91FC910680F781E02DB801C701D1
:1010B0000995080F111DF701E084F184EECFD801E6
:1010C0001C92F60101900020E9F73197BF016C19DD
:1010D0007D0940E0C601C6CF6DE071E0FB0144919F
:1010E00050E080E80E94360209CF973009F4BECF65
:1010F000983021F481E08093F10000CF993009F01D
:10110000FDCE837009F0B2CFE3E1F1E081E031E0A0
:1011100096E32191222371F08093E9003093EB0054
:10112000DF0111972C912093EC009093ED008F5FDD
:10113000873079F78EE78093EA001092EA008F8972
:1011400080932F02DBCE8B8D9C8D1092E900109244
:101150001D0210921C0290931B0280931A02898D2B
:10116000811192C08E899D89913A49F4813209F0AA
:101170007DCF47E050E064E071E080E0B3CF913292
:1011800009F074CF833269F48F89988DB0E0A0E0C4
:101190008093000190930101A0930201B093030199
:1011A000ADCE803269F48091E80082FFFCCF67E029
:1011B00084E091E00E948D028BEF8093E8009ECE48
:1011C000823209F09BCE8F8980930B01EEEFFFE70F
:1011D000859194918B3F9C4D51F1E0E0F8E0809136
:1011E000040190910501A0910601B0910701803B97
:1011F0009440A105B105F1F480910B0180FD1AC066
:10120000EE3F8AE0F80789F587E797E791838083C7
:101210008091600080931E0288E19BE00FB6F894F5
:10122000A895809360000FBE9093600067CEEEEFAC
:10123000FAE0D5CF808191818737974709F05ECE5C
:10124000A8958091600088618093600080911E0263
:1012500080936000EE3F2AE0F20789F08091FE0A59
:101260009091FF0A9183808349CE80819181873755
:10127000980751F29093FF0A8093FE0AC5CF10920F
:10128000FF0A1092FE0A3ACE0E944001DC0112963B
:101290000D911C910115110509F4E8CED801ED91CD
:1012A000FC910190F081E02DBE016B5E7F4FC80183
:1012B0000995811123CEF80100851185EBCF181611
:1012C00019060CF41BCED2CEF1E0FF12BECE61E1C6
:1012D00071E004CF1F920F920FB60F9211242F933B
:1012E0003F938F939F93AF93BF93809112029091FE
:1012F0001302A0911402B09115023091110223E063
:10130000230F2D3758F50196A11DB11D2093110211
:101310008093120290931302A0931402B0931502CB
:101320008091160290911702A0911802B0911902B3
:101330000196A11DB11D8093160290931702A093F0
:101340001802B0931902BF91AF919F918F913F9175
:101350002F910F900FBE0F901F90189526E8230F26
:101360000296A11DB11DD2CF1F920F920FB60F9200
:1013700011242F933F934F935F936F937F938F939A
:101380009F93AF93BF93EF93FF9380E892E00E9407
:101390007604FF91EF91BF91AF919F918F917F91D3
:1013A0006F915F914F913F912F910F900FBE0F90D2
:1013B0001F9018951F920F920FB60F9211242F9322
:1013C0008F939F93EF93FF93E0919002F09191029E
:1013D0008081E0919602F091970282FD1BC090817E
:1013E000809199028F5F8F7320919A02821741F04A
:1013F000E0919902F0E0E058FD4F958F80939902BB
:10140000FF91EF919F918F912F910F900FBE0F90B1
:101410001F9018958081F4CF1F920F920FB60F92F4
:1014200011242F933F934F935F936F937F938F93E9
:101430009F93AF93BF93EF93FF93E0910F02F091CF
:101440001002309749F0A685B7858585968D91FF66
:1014500014C09C918923A1F4FF91EF91BF91AF91AA
:101460009F918F917F916F915F914F913F912F91BC
:101470000F900FBE0F901F9018959C91892361F7D4
:10148000A389B4899C918589809589238C938689C9
:1014900097890197F1F7608D718DA685B785558580
:1014A00038E020E0CB010197F1F7822F90E095958D
:1014B0008795282F4C91452309F02068315091F7EA
:1014C000868D81FD209580910D0290E001968F73AD
:1014D000992730910E02381799F0A0910D02B0E0D3
:1014E000A353BE4F2C9380930D02828D938D019751
:1014F000F1F7A389B4898C919589892B8C93ACCF12
:10150000868D8160868FF1CF1F920F920FB60F925A
:1015100011242F933F934F935F936F937F938F93F8
:101520009F93AF93BF93EF93FF938091B900887F10
:10153000803609F44AC0F0F5883209F4A5C018F5E0
:10154000803109F499C0B8F4882309F4F5C08830D3
:1015500009F492C0FF91EF91BF91AF919F918F914C
:101560007F916F915F914F913F912F910F900FBE9F
:101570000F901F901895883109F486C0803251F77A
:101580008093A60114C0803409F49BC040F48033DA
:10159000B9F38833F9F68093A60185ECAEC08035A7
:1015A00009F483C0883509F494C0883499F60E9400
:1015B0005406D0CF883909F48AC038F5883729F025
:1015C00050F4883611F0803729F683E08093A70124
:1015D0001092A50155C0883809F479C0803919F0F6
:1015E000803809F0B7CF8091A501803208F06FC034
:1015F000E091A50181E08E0F8093A5018091BB0051
:10160000F0E0EB57FE4F80833BC0803B39F0D0F4D5
:10161000803A09F477C0883A09F09CCF84E080933F
:10162000A7011092840110928301F0E0E0E0099597
:101630008091830181110FC081E08093830110921A
:10164000630109C0803C09F4A8CF883C09F4A5CF08
:10165000883B09F07FCFE091840181E08E0F809379
:101660008401F0E0ED59FE4F80818093BB009091A2
:1016700084018091830129C08091CC018093BB00BB
:1016800085EC8093BC0066CF9091CB018091CA011C
:10169000981758F5E091CB0181E08E0F8093CB0134
:1016A000F0E0E655FE4F8081E9CFE091CB0181E08B
:1016B0008E0F8093CB018091BB00F0E0E655FE4F8A
:1016C00080839091CB018091CA019817C8F285E878
:1016D000D8CFE091CB0181E08E0F8093CB01809138
:1016E000BB00F0E0E655FE4F80838091A901811197
:1016F0005ECF81E08093A80184EA8093BC001092C1
:10170000A70128CF85EC8093BC001092A70180919F
:10171000A501803230F4E091A501F0E0EB57FE4FD7
:1017200010826091A50170E085E891E0F0E0E0E0D2
:1017300009951092A5010ECF1092A60138CF0F93F4
:101740001F93CF93DF93109233021092320288EEF0
:1017500093E0A0E0B0E08093340290933502A09330
:101760003602B09337022DE131E0309331022093FD
:1017700030022FEF3FEF30933D0220933C02109256
:101780008302109282028093840290938502A09338
:101790008602B09387022FE231E0309381022093DA
:1017A00080022DEC30E030938D0220938C022CECE3
:1017B00030E030938F0220938E0228EC30E030939B
:1017C00091022093900229EC30E030939302209311
:1017D00092022AEC30E030939502209394022EEC92
:1017E00030E0309397022093960210929902109263
:1017F0009A0210929B0210929C0210922003109267
:101800001F038093210390932203A0932303B0939B
:10181000240381E491E090931E0380931D031092B2
:101820003403109233031092360310923503109252
:1018300038031092370310923A03109239036091E3
:101840003B036E7F6D7F60933B036695617081E023
:10185000682783E00E949A0245E951E0FA01649109
:1018600086E791E0FC012491222399F030E0220FD9
:10187000331FF901E95AFE4FA591B491F901EB59D3
:10188000FE4F259134912FB7F8943C91632B6C93C4
:101890002FBFFA01449140932D03FC018491E82F5E
:1018A000F0E0EE0FFF1FEB59FE4F8591949190935E
:1018B0002F0380932E0304E911E0F8012491C5E77A
:1018C000D1E0FE0184918823C9F090E0880F991F30
:1018D000FC01E95AFE4FA591B491FC01EB59FE4F72
:1018E000459154913FB7F8949C91822F809598230D
:1018F0009C93FA019081892380833FBF80913B03B1
:1019000081FD04C061E082E00E949A0282E080933F
:101910002903F801049100932A03FE01C491EC2FDE
:10192000F0E0EE0FFF1FE75BFE4F859194919093DF
:101930002C0380932B03DF91CF911F910F9108957A
:10194000CF93DF93CDB7DEB72E970FB6F894DEBFF7
:101950000FBECDBF789484B5826084BD84B58160AC
:1019600084BD85B5826085BD85B5816085BD80916A
:101970006E00816080936E001092810080918100E2
:1019800082608093810080918100816080938100DA
:1019900080918000816080938000809191008260BE
:1019A000809391008091910081608093910080915B
:1019B00090008160809390008091C100846080934A
:1019C000C1008091C10082608093C1008091C100FC
:1019D00081608093C1008091C30081608093C300C7
:1019E0008091C00082608093C0008091C2008160BD
:1019F0008093C20080917A00846080937A00809105
:101A00007A00826080937A0080917A00816080936E
:101A10007A0080917A00806880937A0010922F0279
:101A200010921F02109221028091D7008160809352
:101A3000D70080EA8093D80089B5806189BD89B5D7
:101A4000826089BD09B400FEFDCF61E070E080E0F6
:101A500090E00E9430038091D8008F7C8061809359
:101A6000D8008091E000807F8093E0008091E100C9
:101A70008E7E8093E1008DE08093E200559A209A5B
:101A80001C821B821E821D8218861F8261E571E006
:101A9000CE0103960E940A06E0919002F091910215
:101AA00082E08083E0918C02F0918D021082E091BF
:101AB0008E02F0918F028FEC808310929802E09159
:101AC0009402F091950286E08083E0919202F09179
:101AD0009302808180618083E0919202F091930271
:101AE000808188608083E0919202F09193028081EE
:101AF00080688083E0919202F091930280818F7DD3
:101B00008083CE0103960E94020600E010E01C8252
:101B10001B821E821D8218861F8261E571E0CE0144
:101B200003960E940A061A8619861C861B861E8644
:101B30001D8662E571E0CE0109960E940A06CE017B
:101B400009960E941404CE0109960E94020664E6DA
:101B500070E080E090E00E943003CE0103960E9486
:101B600002060115110599F20E946204882379F298
:101B70000E940000CCCF81E491E090931E038093FB
:101B80001D0380910F02909110028D51934071F4CA
:101B9000E0913003F0913103908180913203809580
:101BA000892380831092100210920F0208952F92C1
:101BB0003F924F925F926F927F928F929F92AF92DD
:101BC000BF92CF92DF92EF92FF920F931F93CF932A
:101BD000DF93CDB7DEB7CA1BDB0B0FB6F894DEBFC1
:101BE0000FBECDBF09942A88398848885F846E84E7
:101BF0007D848C849B84AA84B984C884DF80EE8031
:101C0000FD800C811B81AA81B981CE0FD11D0FB639
:101C1000F894DEBF0FBECDBFED010895EE0FFF1F9C
:101C20000590F491E02D09940F931F93CF93DF93C8
:101C30008230910510F482E090E0E0913E03F09153
:101C40003F0330E020E0B0E0A0E0309799F42115A8
:101C5000310509F44AC0281B390B24303105D8F569
:101C60008A819B816115710589F1FB0193838283D0
:101C7000FE0111C04081518102811381481759072B
:101C8000E0F04817590799F4109761F012960C93F9
:101C9000129713961C933296CF01DF91CF911F912B
:101CA0000F91089500933E0310933F03F4CF211545
:101CB000310551F04217530738F0A901DB019A01B1
:101CC000BD01DF01F801C1CFEF01F9CF90933F03D0
:101CD00080933E03CDCFFE01E20FF31F81939193DA
:101CE0002250310939832883D7CF20913C0330918A
:101CF0003D03232B41F420910E0130910F013093CD
:101D00003D0320933C0320910C0130910D012115DE
:101D1000310541F42DB73EB74091100150911101AA
:101D2000241B350BE0913C03F0913D03E217F307D0
:101D3000A0F42E1B3F0B2817390778F0AC014E5F3B
:101D40005F4F2417350748F04E0F5F1F50933D0338
:101D500040933C03819391939FCFF0E0E0E09CCFD0
:101D6000CF93DF930097E9F0FC0132971382128240
:101D7000A0913E03B0913F03ED0130E020E01097C9
:101D8000A1F420813181820F931F20913C03309177
:101D90003D032817390709F061C0F0933D03E09334
:101DA0003C03DF91CF910895EA01CE17DF07E8F5F4
:101DB0004A815B819E0141155105B1F7E901FB8321
:101DC000EA8349915991C40FD51FEC17FD0761F4BF
:101DD000808191810296840F951FE9019983888300
:101DE000828193819B838A83F0E0E0E012968D915B
:101DF0009C9113970097B9F52D913C911197CD01C6
:101E00000296820F931F20913C0330913D032817C7
:101E1000390739F6309751F510923F0310923E037F
:101E2000B0933D03A0933C03BCCFD383C2834081D6
:101E30005181840F951FC817D90761F44E5F5F4F1A
:101E400088819981480F591F518340838A819B81E2
:101E5000938382832115310509F0B0CFF0933F03BE
:101E6000E0933E039ECFFD01DC01C0CF13821282BE
:101E7000D7CFB0E0A0E0EFE3FFE00C94D90D8C01E8
:101E8000009751F4CB010E94140E8C01C801CDB70C
:101E9000DEB7E0E10C94F50DFC01E60FF71F9C01A5
:101EA00022503109E217F30708F49DC0D901CD9102
:101EB000DC911197C617D70798F0C530D10530F3DC
:101EC000CE0104978617970708F3C61BD70B2297F6
:101ED000C193D1936D937C93CF010E94B00ED6CF66
:101EE0005B01AC1ABD0A4C018C0E9D1EA0913E03F5
:101EF000B0913F03512C412CF12CE12C109731F57E
:101F000080913C0390913D038815990509F05CC0D0
:101F10004616570608F058C080910C0190910D01AB
:101F2000009741F48DB79EB7409110015091110177
:101F3000841B950BE817F90708F055C0F0933D0393
:101F4000E0933C03F90171836083A0CF8D919C9154
:101F5000119712966C90129713967C901397A81570
:101F6000B90559F56C0142E0C40ED11CCA14DB045A
:101F700020F1AC014A195B09DA011296159780F03D
:101F80006282738251834083D9016D937C93E11403
:101F9000F10471F0D7011396FC93EE93129776CF6C
:101FA00022968C0F9D1FF90191838083F301EFCF5F
:101FB000F0933F03E0933E0369CF4816590608F4B7
:101FC0002C017D01D3019ACFCB010E94140E7C011C
:101FD000009749F0AE01B8010E94F60FC8010E94B7
:101FE000B00E870153CF10E000E050CFFB01DC01C1
:101FF00002C001900D9241505040D8F70895FB0166
:10200000DC0101900D920020E1F7089510E0CAED87
:10201000D0E004C0FE010E940E0E2196CB3DD107F8
:06202000C9F7F894FFCFA0
:10202600FFFFFFFF00E1000000000000000040038A
:10203600800000C1808100000000000000540162A1
:102046000375016A01BB0179019701000000009741
:1020560004E7032504E3045604340448040000009E
:10206600001C05E703FF051B0578058E0503050D16
:0C2076000A0054657374203132330000FE
:00000001FF
